{
  "address": "0x5A90c235A46975f300e123589930AadcD4db0983",
  "abi": [
    {
      "anonymous": false,
      "inputs": [
        {
          "indexed": true,
          "internalType": "uint256",
          "name": "orderId",
          "type": "uint256"
        }
      ],
      "name": "BuyerConfirmed",
      "type": "event"
    },
    {
      "anonymous": false,
      "inputs": [
        {
          "indexed": true,
          "internalType": "uint256",
          "name": "orderId",
          "type": "uint256"
        }
      ],
      "name": "FarmerConfirmed",
      "type": "event"
    },
    {
      "anonymous": false,
      "inputs": [
        {
          "indexed": true,
          "internalType": "uint256",
          "name": "id",
          "type": "uint256"
        },
        {
          "indexed": true,
          "internalType": "address",
          "name": "farmer",
          "type": "address"
        },
        {
          "indexed": false,
          "internalType": "string",
          "name": "produce",
          "type": "string"
        },
        {
          "indexed": false,
          "internalType": "string",
          "name": "unit",
          "type": "string"
        },
        {
          "indexed": false,
          "internalType": "uint256",
          "name": "unitPrice",
          "type": "uint256"
        },
        {
          "indexed": false,
          "internalType": "uint256",
          "name": "available",
          "type": "uint256"
        }
      ],
      "name": "Listed",
      "type": "event"
    },
    {
      "anonymous": false,
      "inputs": [
        {
          "indexed": true,
          "internalType": "uint256",
          "name": "orderId",
          "type": "uint256"
        },
        {
          "indexed": true,
          "internalType": "uint256",
          "name": "listingId",
          "type": "uint256"
        },
        {
          "indexed": true,
          "internalType": "address",
          "name": "buyer",
          "type": "address"
        },
        {
          "indexed": false,
          "internalType": "uint256",
          "name": "quantity",
          "type": "uint256"
        },
        {
          "indexed": false,
          "internalType": "uint256",
          "name": "totalPrice",
          "type": "uint256"
        }
      ],
      "name": "OrderCreated",
      "type": "event"
    },
    {
      "anonymous": false,
      "inputs": [
        {
          "indexed": true,
          "internalType": "uint256",
          "name": "orderId",
          "type": "uint256"
        },
        {
          "indexed": false,
          "internalType": "uint256",
          "name": "amount",
          "type": "uint256"
        }
      ],
      "name": "Refunded",
      "type": "event"
    },
    {
      "anonymous": false,
      "inputs": [
        {
          "indexed": true,
          "internalType": "uint256",
          "name": "orderId",
          "type": "uint256"
        },
        {
          "indexed": false,
          "internalType": "uint256",
          "name": "amount",
          "type": "uint256"
        }
      ],
      "name": "Released",
      "type": "event"
    },
    {
      "anonymous": false,
      "inputs": [
        {
          "indexed": true,
          "internalType": "uint256",
          "name": "id",
          "type": "uint256"
        },
        {
          "indexed": false,
          "internalType": "uint256",
          "name": "unitPrice",
          "type": "uint256"
        },
        {
          "indexed": false,
          "internalType": "uint256",
          "name": "available",
          "type": "uint256"
        },
        {
          "indexed": false,
          "internalType": "bool",
          "name": "active",
          "type": "bool"
        }
      ],
      "name": "Updated",
      "type": "event"
    },
    {
      "inputs": [
        {
          "internalType": "uint256",
          "name": "id",
          "type": "uint256"
        },
        {
          "internalType": "uint256",
          "name": "quantity",
          "type": "uint256"
        }
      ],
      "name": "buy",
      "outputs": [
        {
          "internalType": "uint256",
          "name": "orderId",
          "type": "uint256"
        }
      ],
      "stateMutability": "payable",
      "type": "function"
    },
    {
      "inputs": [
        {
          "internalType": "uint256",
          "name": "orderId",
          "type": "uint256"
        }
      ],
      "name": "confirmReceived",
      "outputs": [],
      "stateMutability": "nonpayable",
      "type": "function"
    },
    {
      "inputs": [
        {
          "internalType": "uint256",
          "name": "orderId",
          "type": "uint256"
        }
      ],
      "name": "confirmSent",
      "outputs": [],
      "stateMutability": "nonpayable",
      "type": "function"
    },
    {
      "inputs": [
        {
          "internalType": "string",
          "name": "_productID",
          "type": "string"
        }
      ],
      "name": "getHash",
      "outputs": [
        {
          "internalType": "bytes32",
          "name": "",
          "type": "bytes32"
        }
      ],
      "stateMutability": "pure",
      "type": "function"
    },
    {
      "inputs": [
        {
          "internalType": "string",
          "name": "produce",
          "type": "string"
        },
        {
          "internalType": "string",
          "name": "unit",
          "type": "string"
        },
        {
          "internalType": "uint256",
          "name": "unitPrice",
          "type": "uint256"
        },
        {
          "internalType": "uint256",
          "name": "available",
          "type": "uint256"
        },
        {
          "internalType": "string",
          "name": "metadata",
          "type": "string"
        }
      ],
      "name": "list",
      "outputs": [
        {
          "internalType": "uint256",
          "name": "id",
          "type": "uint256"
        }
      ],
      "stateMutability": "nonpayable",
      "type": "function"
    },
    {
      "inputs": [
        {
          "internalType": "uint256",
          "name": "",
          "type": "uint256"
        }
      ],
      "name": "listings",
      "outputs": [
        {
          "internalType": "address payable",
          "name": "farmer",
          "type": "address"
        },
        {
          "internalType": "string",
          "name": "produce",
          "type": "string"
        },
        {
          "internalType": "string",
          "name": "unit",
          "type": "string"
        },
        {
          "internalType": "uint256",
          "name": "unitPrice",
          "type": "uint256"
        },
        {
          "internalType": "uint256",
          "name": "available",
          "type": "uint256"
        },
        {
          "internalType": "bool",
          "name": "active",
          "type": "bool"
        },
        {
          "internalType": "string",
          "name": "metadata",
          "type": "string"
        }
      ],
      "stateMutability": "view",
      "type": "function"
    },
    {
      "inputs": [
        {
          "internalType": "uint256",
          "name": "",
          "type": "uint256"
        }
      ],
      "name": "orders",
      "outputs": [
        {
          "internalType": "uint256",
          "name": "listingId",
          "type": "uint256"
        },
        {
          "internalType": "address",
          "name": "buyer",
          "type": "address"
        },
        {
          "internalType": "uint256",
          "name": "quantity",
          "type": "uint256"
        },
        {
          "internalType": "uint256",
          "name": "totalPrice",
          "type": "uint256"
        },
        {
          "internalType": "bool",
          "name": "farmerConfirmed",
          "type": "bool"
        },
        {
          "internalType": "bool",
          "name": "buyerConfirmed",
          "type": "bool"
        },
        {
          "internalType": "bool",
          "name": "released",
          "type": "bool"
        }
      ],
      "stateMutability": "view",
      "type": "function"
    },
    {
      "inputs": [
        {
          "internalType": "uint256",
          "name": "id",
          "type": "uint256"
        },
        {
          "internalType": "uint256",
          "name": "newUnitPrice",
          "type": "uint256"
        },
        {
          "internalType": "uint256",
          "name": "newAvailable",
          "type": "uint256"
        },
        {
          "internalType": "bool",
          "name": "active",
          "type": "bool"
        }
      ],
      "name": "update",
      "outputs": [],
      "stateMutability": "nonpayable",
      "type": "function"
    }
  ],
  "transactionHash": "0x6a9b0fe88ecc7105542e3456ebd7d074fc864a6dd214e7401e4a17f788334adf",
  "args": [],
  "numDeployments": 1,
  "solcInputHash": "81da4f708b60cbe56ff7e640983933bb",
  "bytecode": "0x608060405234801561001057600080fd5b50611359806100206000396000f3fe60806040526004361061007b5760003560e01c8063a85c38ef1161004e578063a85c38ef14610115578063d6febde8146101c3578063de74e57b146101d6578063f19089cf1461020957600080fd5b806327dac36d146100805780632990a8db146100a25780635b6beeb9146100c257806384e62f2c146100f5575b600080fd5b34801561008c57600080fd5b506100a061009b366004610dff565b610229565b005b3480156100ae57600080fd5b506100a06100bd366004610e18565b610366565b3480156100ce57600080fd5b506100e26100dd366004610e74565b610477565b6040519081526020015b60405180910390f35b34801561010157600080fd5b506100a0610110366004610dff565b6104a7565b34801561012157600080fd5b50610180610130366004610dff565b60036020819052600091825260409091208054600182015460028301549383015460049093015491936001600160a01b0390911692909160ff808216916101008104821691620100009091041687565b604080519788526001600160a01b03909616602088015294860193909352606085019190915215156080840152151560a0830152151560c082015260e0016100ec565b6100e26101d1366004610f25565b6105de565b3480156101e257600080fd5b506101f66101f1366004610dff565b610857565b6040516100ec9796959493929190610f97565b34801561021557600080fd5b506100e261022436600461104c565b610a3d565b600081815260036020526040902060018101546001600160a01b031633146102845760405162461bcd60e51b81526020600482015260096024820152683737ba10313abcb2b960b91b60448201526064015b60405180910390fd5b600481015460ff166102cf5760405162461bcd60e51b815260206004820152601460248201527319985c9b595c881b9bdd0818dbdb999a5c9b595960621b604482015260640161027b565b600481015462010000900460ff161561031d5760405162461bcd60e51b815260206004820152601060248201526f185b1c9958591e481c995b19585cd95960821b604482015260640161027b565b60048101805461ff00191661010017905561033782610c96565b60405182907fcd651d32f68166996708275e410f7cc693ffbf0dd03463103e75e9b45629e21d90600090a25050565b600084815260026020526040902080546001600160a01b031633146103ba5760405162461bcd60e51b815260206004820152600a6024820152693737ba103330b936b2b960b11b604482015260640161027b565b80546001600160a01b03166103fa5760405162461bcd60e51b8152602060048201526006602482015265189859081a5960d21b604482015260640161027b565b831561040857600381018490555b6004810183905560058101805483151560ff1990911681179091556003820154604080519182526020820186905260ff909216151581830152905186917f2935032270c85a3caaebcce676cd7fcb44c8f9b37ff15ff1895a84125f2dbca8919081900360600190a25050505050565b60008160405160200161048a91906110f9565b604051602081830303815290604052805190602001209050919050565b600081815260036020526040902060018101546001600160a01b03166104fb5760405162461bcd60e51b81526020600482015260096024820152683130b21037b93232b960b91b604482015260640161027b565b8054600090815260026020526040902080546001600160a01b031633146105515760405162461bcd60e51b815260206004820152600a6024820152693737ba103330b936b2b960b11b604482015260640161027b565b600482015462010000900460ff161561059f5760405162461bcd60e51b815260206004820152601060248201526f185b1c9958591e481c995b19585cd95960821b604482015260640161027b565b60048201805460ff1916600117905560405183907fdf9aeb741cd722ed450ea98dc77f78e29a3fa9db8a405fdb9292d861d8a3d78190600090a2505050565b600082815260026020526040812080546001600160a01b031661062c5760405162461bcd60e51b8152602060048201526006602482015265189859081a5960d21b604482015260640161027b565b600581015460ff1661066b5760405162461bcd60e51b8152602060048201526008602482015267696e61637469766560c01b604482015260640161027b565b60008311801561067f575080600401548311155b6106b95760405162461bcd60e51b815260206004820152600b60248201526a696e76616c69642071747960a81b604482015260640161027b565b60008382600301546106cb919061112b565b90508034146107105760405162461bcd60e51b81526020600482015260116024820152701cd95b9908195e1858dd08185b5bdd5b9d607a1b604482015260640161027b565b838260040160008282546107249190611148565b909155505060048201546000036107425760058201805460ff191690555b6001600081546107519061115b565b91829055506040805160e0810182528781523360208083018281528385018a81526060850188815260006080870181815260a0880182815260c089018381528b84526003808952938b902099518a55955160018a0180546001600160a01b0319166001600160a01b039092169190911790559351600289015591519087015551600490950180549151925161ffff1990921695151561ff00191695909517610100921515929092029190911762ff000019166201000091151591909102179092558251888152918201859052929550879186917f136333a1c3b206d34cce3dda5c5f12f2a06f154d243f4c5406cbc2ebda94749c910160405180910390a4505092915050565b600260205260009081526040902080546001820180546001600160a01b03909216929161088390611174565b80601f01602080910402602001604051908101604052809291908181526020018280546108af90611174565b80156108fc5780601f106108d1576101008083540402835291602001916108fc565b820191906000526020600020905b8154815290600101906020018083116108df57829003601f168201915b50505050509080600201805461091190611174565b80601f016020809104026020016040519081016040528092919081815260200182805461093d90611174565b801561098a5780601f1061095f5761010080835404028352916020019161098a565b820191906000526020600020905b81548152906001019060200180831161096d57829003601f168201915b5050506003840154600485015460058601546006870180549697939692955060ff9091169350906109ba90611174565b80601f01602080910402602001604051908101604052809291908181526020018280546109e690611174565b8015610a335780601f10610a0857610100808354040283529160200191610a33565b820191906000526020600020905b815481529060010190602001808311610a1657829003601f168201915b5050505050905087565b6000808511610a785760405162461bcd60e51b8152602060048201526007602482015266070726963653d360cc1b604482015260640161027b565b60008411610ab05760405162461bcd60e51b815260206004820152600560248201526407174793d360dc1b604482015260640161027b565b6000808154610abe9061115b565b91905081905590506040518060e00160405280336001600160a01b031681526020018a8a8080601f016020809104026020016040519081016040528093929190818152602001838380828437600092019190915250505090825250604080516020601f8b0181900481028201810190925289815291810191908a908a908190840183828082843760009201919091525050509082525060208082018890526040808301889052600160608401528051601f87018390048302810183019091528581526080909201919086908690819084018382808284376000920182905250939094525050838152600260209081526040909120835181546001600160a01b0319166001600160a01b03909116178155908301519091506001820190610be490826111fd565b5060408201516002820190610bf990826111fd565b50606082015160038201556080820151600482015560a082015160058201805460ff191691151591909117905560c08201516006820190610c3a90826111fd565b50905050336001600160a01b0316817f4d24da2b70562743cabea6cd760eed0904274271969048edfc6f65e0b556d0388b8b8b8b8b8b604051610c82969594939291906112e6565b60405180910390a398975050505050505050565b6000818152600360205260409020600481015460ff168015610cc157506004810154610100900460ff165b610d045760405162461bcd60e51b815260206004820152601460248201527368616e647368616b6520696e636f6d706c65746560601b604482015260640161027b565b805460009081526002602052604080822060048401805462ff00001916620100001790558054600385015492519193926001600160a01b03909116918381818185875af1925050503d8060008114610d78576040519150601f19603f3d011682016040523d82523d6000602084013e610d7d565b606091505b5050905080610dbb5760405162461bcd60e51b815260206004820152600a6024820152691c185e4819985a5b195960b21b604482015260640161027b565b837fd5840651550c173a8bf246eede440a59253bc61eadb2e8887168faad2fad631d8460030154604051610df191815260200190565b60405180910390a250505050565b600060208284031215610e1157600080fd5b5035919050565b60008060008060808587031215610e2e57600080fd5b84359350602085013592506040850135915060608501358015158114610e5357600080fd5b939692955090935050565b634e487b7160e01b600052604160045260246000fd5b600060208284031215610e8657600080fd5b813567ffffffffffffffff80821115610e9e57600080fd5b818401915084601f830112610eb257600080fd5b813581811115610ec457610ec4610e5e565b604051601f8201601f19908116603f01168101908382118183101715610eec57610eec610e5e565b81604052828152876020848701011115610f0557600080fd5b826020860160208301376000928101602001929092525095945050505050565b60008060408385031215610f3857600080fd5b50508035926020909101359150565b60005b83811015610f62578181015183820152602001610f4a565b50506000910152565b60008151808452610f83816020860160208601610f47565b601f01601f19169290920160200192915050565b6001600160a01b038816815260e060208201819052600090610fbb90830189610f6b565b8281036040840152610fcd8189610f6b565b905086606084015285608084015284151560a084015282810360c0840152610ff58185610f6b565b9a9950505050505050505050565b60008083601f84011261101557600080fd5b50813567ffffffffffffffff81111561102d57600080fd5b60208301915083602082850101111561104557600080fd5b9250929050565b60008060008060008060008060a0898b03121561106857600080fd5b883567ffffffffffffffff8082111561108057600080fd5b61108c8c838d01611003565b909a50985060208b01359150808211156110a557600080fd5b6110b18c838d01611003565b909850965060408b0135955060608b0135945060808b01359150808211156110d857600080fd5b506110e58b828c01611003565b999c989b5096995094979396929594505050565b6000825161110b818460208701610f47565b9190910192915050565b634e487b7160e01b600052601160045260246000fd5b808202811582820484141761114257611142611115565b92915050565b8181038181111561114257611142611115565b60006001820161116d5761116d611115565b5060010190565b600181811c9082168061118857607f821691505b6020821081036111a857634e487b7160e01b600052602260045260246000fd5b50919050565b601f8211156111f857600081815260208120601f850160051c810160208610156111d55750805b601f850160051c820191505b818110156111f4578281556001016111e1565b5050505b505050565b815167ffffffffffffffff81111561121757611217610e5e565b61122b816112258454611174565b846111ae565b602080601f83116001811461126057600084156112485750858301515b600019600386901b1c1916600185901b1785556111f4565b600085815260208120601f198616915b8281101561128f57888601518255948401946001909101908401611270565b50858210156112ad5787850151600019600388901b60f8161c191681555b5050505050600190811b01905550565b81835281816020850137506000828201602090810191909152601f909101601f19169091010190565b6080815260006112fa60808301888a6112bd565b828103602084015261130d8187896112bd565b604084019590955250506060015294935050505056fea2646970667358221220558b18f83e454f9c3efc961b582955b516140352ec4d1af288a17b494f43272364736f6c63430008140033",
  "devdoc": {
    "author": "BuidlGuidl",
    "kind": "dev",
    "methods": {},
    "version": 1
  },
  "userdoc": {
    "kind": "user",
    "methods": {},
    "notice": "A smart contract that allows changing a state variable of the contract and tracking the changes It also allows the owner to withdraw the Ether in the contract",
    "version": 1
  },
  "storageLayout": {
    "storage": [
      {
        "astId": 35,
        "contract": "contracts/FarmMart.sol:FarmMart",
        "label": "nextId",
        "offset": 0,
        "slot": "0",
        "type": "t_uint256"
      },
      {
        "astId": 37,
        "contract": "contracts/FarmMart.sol:FarmMart",
        "label": "nextOrderId",
        "offset": 0,
        "slot": "1",
        "type": "t_uint256"
      },
      {
        "astId": 42,
        "contract": "contracts/FarmMart.sol:FarmMart",
        "label": "listings",
        "offset": 0,
        "slot": "2",
        "type": "t_mapping(t_uint256,t_struct(Listing)18_storage)"
      },
      {
        "astId": 47,
        "contract": "contracts/FarmMart.sol:FarmMart",
        "label": "orders",
        "offset": 0,
        "slot": "3",
        "type": "t_mapping(t_uint256,t_struct(Order)33_storage)"
      }
    ],
    "types": {
      "t_address": {
        "encoding": "inplace",
        "label": "address",
        "numberOfBytes": "20"
      },
      "t_address_payable": {
        "encoding": "inplace",
        "label": "address payable",
        "numberOfBytes": "20"
      },
      "t_bool": {
        "encoding": "inplace",
        "label": "bool",
        "numberOfBytes": "1"
      },
      "t_mapping(t_uint256,t_struct(Listing)18_storage)": {
        "encoding": "mapping",
        "key": "t_uint256",
        "label": "mapping(uint256 => struct FarmMart.Listing)",
        "numberOfBytes": "32",
        "value": "t_struct(Listing)18_storage"
      },
      "t_mapping(t_uint256,t_struct(Order)33_storage)": {
        "encoding": "mapping",
        "key": "t_uint256",
        "label": "mapping(uint256 => struct FarmMart.Order)",
        "numberOfBytes": "32",
        "value": "t_struct(Order)33_storage"
      },
      "t_string_storage": {
        "encoding": "bytes",
        "label": "string",
        "numberOfBytes": "32"
      },
      "t_struct(Listing)18_storage": {
        "encoding": "inplace",
        "label": "struct FarmMart.Listing",
        "members": [
          {
            "astId": 5,
            "contract": "contracts/FarmMart.sol:FarmMart",
            "label": "farmer",
            "offset": 0,
            "slot": "0",
            "type": "t_address_payable"
          },
          {
            "astId": 7,
            "contract": "contracts/FarmMart.sol:FarmMart",
            "label": "produce",
            "offset": 0,
            "slot": "1",
            "type": "t_string_storage"
          },
          {
            "astId": 9,
            "contract": "contracts/FarmMart.sol:FarmMart",
            "label": "unit",
            "offset": 0,
            "slot": "2",
            "type": "t_string_storage"
          },
          {
            "astId": 11,
            "contract": "contracts/FarmMart.sol:FarmMart",
            "label": "unitPrice",
            "offset": 0,
            "slot": "3",
            "type": "t_uint256"
          },
          {
            "astId": 13,
            "contract": "contracts/FarmMart.sol:FarmMart",
            "label": "available",
            "offset": 0,
            "slot": "4",
            "type": "t_uint256"
          },
          {
            "astId": 15,
            "contract": "contracts/FarmMart.sol:FarmMart",
            "label": "active",
            "offset": 0,
            "slot": "5",
            "type": "t_bool"
          },
          {
            "astId": 17,
            "contract": "contracts/FarmMart.sol:FarmMart",
            "label": "metadata",
            "offset": 0,
            "slot": "6",
            "type": "t_string_storage"
          }
        ],
        "numberOfBytes": "224"
      },
      "t_struct(Order)33_storage": {
        "encoding": "inplace",
        "label": "struct FarmMart.Order",
        "members": [
          {
            "astId": 20,
            "contract": "contracts/FarmMart.sol:FarmMart",
            "label": "listingId",
            "offset": 0,
            "slot": "0",
            "type": "t_uint256"
          },
          {
            "astId": 22,
            "contract": "contracts/FarmMart.sol:FarmMart",
            "label": "buyer",
            "offset": 0,
            "slot": "1",
            "type": "t_address"
          },
          {
            "astId": 24,
            "contract": "contracts/FarmMart.sol:FarmMart",
            "label": "quantity",
            "offset": 0,
            "slot": "2",
            "type": "t_uint256"
          },
          {
            "astId": 26,
            "contract": "contracts/FarmMart.sol:FarmMart",
            "label": "totalPrice",
            "offset": 0,
            "slot": "3",
            "type": "t_uint256"
          },
          {
            "astId": 28,
            "contract": "contracts/FarmMart.sol:FarmMart",
            "label": "farmerConfirmed",
            "offset": 0,
            "slot": "4",
            "type": "t_bool"
          },
          {
            "astId": 30,
            "contract": "contracts/FarmMart.sol:FarmMart",
            "label": "buyerConfirmed",
            "offset": 1,
            "slot": "4",
            "type": "t_bool"
          },
          {
            "astId": 32,
            "contract": "contracts/FarmMart.sol:FarmMart",
            "label": "released",
            "offset": 2,
            "slot": "4",
            "type": "t_bool"
          }
        ],
        "numberOfBytes": "160"
      },
      "t_uint256": {
        "encoding": "inplace",
        "label": "uint256",
        "numberOfBytes": "32"
      }
    }
  }
}